:020000040800F2
:1000000058050020D500000899250008EF210008B8
:1000100000000000000000000000000000000000E0
:10002000000000000000000000000000C9250008DA
:1000300000000000000000009D250008CB250008FE
:10004000E700000800000000E7000008E7000008E3
:10005000E7000008E7000008E7000008E7000008E4
:1000600000000000E7000008E7000008E7000008C3
:10007000E70000083D260008E70000080000000037
:10008000E70000080000000000000000E700000892
:1000900000000000E7000008E7000008E700000893
:1000A000E7000008E7000008E7000008E700000894
:1000B000E700000800000000000000000000000051
:1000C0000348854600F03CF800480047092F000827
:1000D000580500200448804704480047FEE7FEE733
:1000E000FEE7FEE7FEE7FEE739260008C10000084C
:1000F00030B50B46014600202022012409E00D46C0
:10010000D5409D4205D31D469540491B2546954047
:1001100040191546521E002DF1DC30BDD2B201E06F
:100120000270401C491EFBD270470022F6E710B552
:1001300013460A4604461946FFF7F0FF204610BD55
:10014000064C0125064E05E0E36807CC2B430C3C2A
:1001500098471034B442F7D3FFF7B6FF04300008D5
:100160002430000838B5044600200090206802F0D2
:100170006DF8002858D1206880682C490840002874
:1001800009D0A06D10210843A065E06D012108434E
:10019000E065012038BD206802F04AF8244802F0EA
:1001A0004FF80121C905084000280DD021492248F7
:1001B0000068FFF79DFF401C009002E00098401E81
:1001C000009000980028F9D1607E01282CD000F022
:1001D00067FD05461FE0206802F038F8002802D1CC
:1001E000206802F025F800F05BFD401B022812D9C0
:1001F00020680068C007C00F01214840484000281F
:1002000009D1A06D10210843A065E06D01210843CC
:10021000E0650120BEE720680068C007C00F01212B
:10022000484048400028D6D00020B3E7170000809F
:1002300008270140400D03002400002070B505464A
:100240000C46054800684463284600F017FC00206F
:1002500001490968486370BDF400002010B502F040
:1002600029FE7023024A0349034802F0D4FC10BD62
:10027000F5210008A12500084001002072B600BF4A
:10028000FEE70000024908780021014A117070471A
:1002900028000020F0B585B005460C4600200390EC
:1002A00002900121C9072869884203D0091D2869E5
:1002B000884200D100E000BF00BF5420405D01280B
:1002C00002D1022005B0F0BD01215420415500BFEC
:1002D000286801F0CAFF002876D16068022874D02F
:1002E0000121C9072869884203D0091D286988426D
:1002F00008D128682168826A4B035B0B1A4382622B
:1003000000BFC6E02179CA06D20E0F219140286EA7
:10031000884321684903490B002905D11F22920611
:1003200021681140890E92E02178C907C90F002980
:1003300001D000218BE0022221681140022901D165
:10034000012184E0042221681140042901D1022105
:100350007DE0082221681140082901D1032176E0BF
:10036000102221681140102901D104216FE02022C0
:1003700021681140202901D1052168E0402221682F
:100380001140402901D1062161E0802221681140FD
:10039000802901D107215AE0FF2201322168114052
:1003A000914201D1082152E00122520221681140FC
:1003B000914201D109214AE00122920221681140B3
:1003C000914203D10A2142E0FAE0BAE00122D202CE
:1003D00021681140914201D10B2138E00122120322
:1003E00021681140914201D10C2130E001225203D9
:1003F00021681140914201D10D2128E00122920390
:1004000021681140914201D10E2120E00122D20346
:1004100021681140914201D10F2118E001221204FC
:1004200021681140914201D1102110E001225204B3
:1004300021681140914201D1112108E0012292046A
:1004400021681140914201D1122100E0002122795E
:10045000D206D20E91400843286660688008401C8E
:10046000E969884215D82868226861680192836A20
:10047000CF06FF0E0F22BA4093430F27BF06019A03
:100480003A40920ECF06FF0EBA401343836200BF7C
:1004900000BF286821680091A16801914269009914
:1004A00009028A4300990B024C4F019939400B40D5
:1004B0001A43426100BF2068C00FC007002821D046
:1004C000474801F0BDFE06464649206888421AD1D9
:1004D000C0023040002816D1C802304301464048CF
:1004E00001F0DCFE404941480068FFF701FE401C76
:1004F0000C214843029002E00298401E02900298AC
:100500000028F9D162E03A49206888420AD1800285
:100510003040002806D1880230430146304801F0BF
:10052000BDFE53E03349206888424FD1400230403D
:1005300000284BD1480230430146294801F0AEFE65
:1005400044E00121C9072869884203D0091D2869B0
:10055000884208D128682168826A4B035B0B9A4362
:10056000826200BF00BF2068C00FC00700282DD0E6
:100570001B4801F065FE06461A492068884207D1EB
:10058000C202304690430146154801F087FE1DE047
:1005900017492068884207D18202304690430146BD
:1005A0000F4801F07BFE11E01249206888420DD10E
:1005B0004202304690430146094801F06FFE05E0D3
:1005C000A86D20210843A8650120039000BF0021E9
:1005D0005420415500BF039874E6000000FFFF0758
:1005E00008270140001000B0400D03002400002047
:1005F000004000B8002000B401460868006C704755
:10060000FEB5044600200290002500260190002C33
:1006100001D10120FEBD3C20005D012800D100BFBA
:100620002069002805D0012149052069884200D1B0
:1006300000BFA06D002807D1204600F02DF9002052
:10064000E065002154200155206801F007FE0028D4
:1006500017D120688168894A11400122120711438D
:10066000816000BF864987480068FFF741FD401C54
:100670004000019002E00198401E0190019800287E
:10068000F9D1206801F0EAFD002809D1A06D102100
:100690000843A065E06D01210843E0650120029058
:1006A000206801F0E2FD0746A06D102108400028F7
:1006B0007ED1002FFCD1A06D09018843022108439F
:1006C000A065206801F0C2FD002872D1217E890357
:1006D000A0680843617EC9030843A17E490308431B
:1006E000216B002902D00121090300E00021084309
:1006F000E16808432169C90FC907002903D02169AE
:100700004900490801E00121490508432C21095D00
:100710004900084305432020005D01280ED1A07E3A
:10072000002803D101200004054307E0A06D20212B
:100730000843A065E06D01210843E065606A002878
:1007400006D0FF21C131606A0840A16A0843054311
:100750002068C0684C49084028432168C860606828
:10076000800F8007E16C084306433C20005D0128B0
:100770000BD16068800F800701210843216C08437A
:10078000616C0843A16C08430643206800693F4937
:100790000840304321680861032189076068884266
:1007A00016D049426068884212D04900606801E072
:1007B0005BE00DE088420BD0354880680F2189044A
:1007C00088430F22920461681140084330498860D1
:1007D0000021626B206801F068FD2E49A26B206841
:1007E00001F063FD2069002807D12068806A0F218D
:1007F000C94308432168886211E001214905206945
:1008000088420CD1207F401E4007C10E0F20C043FC
:100810008840216E08432168896A216888622168BE
:100820000020009100994969042202400723934067
:10083000194004220240D140606B814208D100205F
:10084000E065A06D0221884301210843A06512E004
:10085000A06D0221884310210843A065E06D0121AD
:100860000843E0650120029005E0A06D10210843D7
:10087000A065012002900298CCE60000E8FFFF7F0F
:10088000400D0300240000200102FEFF02FCFF1FB8
:100890000027014004FFFF0710B58CB00446142167
:1008A00007A8FFF742FC182101A8FFF73EFC1E49EC
:1008B0002068884236D101208003019000200590F5
:1008C00001A800F0F5FA002801D0FFF7D7FC00BF1F
:1008D00016480068012109050843144908600846C4
:1008E0000068012109050840009000BF00BF00BF5B
:1008F0000E484038406B012108430C494039486399
:100900000846406BC007C00F009000BF00BF012029
:100910000790032008900020099007A905200007F0
:1009200000F0C2F80CB010BD00240140401002409D
:10093000F8B504460D466069082801D108260CE088
:100940002068C068C007C00F002805D0A06D202116
:100950000843A0650120F8BD042600F0A1F9074670
:1009600019E0681C002816D000F09AF9C01BA842B4
:1009700001D8002D0FD120680068304000280AD12E
:10098000A06D04210843A06500BF0021542001553B
:1009900000BF0320DFE72068006830400028E0D077
:1009A000A06D012149020843A065206801F063FCA5
:1009B000002823D0A07E002820D1206800680821CC
:1009C000084008281AD1206801F04FFC00280DD1FA
:1009D000206840680C21884321684860A06DFF2191
:1009E0000131884301210843A06507E0A06D202163
:1009F0000843A065E06D01210843E065207E0028E2
:100A000002D10C20216808600020A4E770B50446DC
:100A1000206801F02AFC00282AD100BF5420005D84
:100A2000012801D1022070BD01215420015500BFD1
:100A30002046FFF797FB0546002D14D1A06D0E4907
:100A40000840FF2101310843A0650020E0651C201B
:100A50002168086000BF00215420015500BF2068B4
:100A600001F014FC05E000BF00215420015500E016
:100A700002252846D7E70000FEF1FFFF70B50446C7
:100A800000F00EF906462546681C002802D00548ED
:100A900000782D1800BF00F003F9801BA842FAD39C
:100AA00070BD00002000002070B503460A460021FA
:100AB000D7E001268E4014683440002C73D015799D
:100AC000AD07AD0F012D04D01579AD07AD0F022D87
:100AD00018D198684E000325B5400646AE4330460F
:100AE0004E00D568B54028439860586801258D4070
:100AF0000646AE4330461026556835402D098D40D8
:100B0000284358601579AD07AD0F032D0BD0D86879
:100B10004E000325B5400646AE4330464E0095686C
:100B2000B5402843D8601579AD07AD0F022D15D11A
:100B3000CD08AE001D462035A8594D07EE0E0F25F5
:100B4000B5400646AE4330464E07F60E1569B54031
:100B50002843CD08AD001E462036705118684E005F
:100B60000325B5400646AE4330461579AD07AD0FB7
:100B70004E00B540284318600326360455683540BA
:100B8000002D6DD03A4D8E08B600A8598D07EE0E97
:100B90000F25B5400646AE43304605252D07AB422E
:100BA00002D1002510E05BE0324DAB4201D10125BE
:100BB0000AE0314DAB4201D1022505E02F4DAB4299
:100BC00001D1032500E005258E07F60EB540284328
:100BD000274D8E08B600A851254D603D2868054672
:100BE000A54328460126360555683540002D02D01C
:100BF0000546254328461E4D603D28606868054629
:100C0000A54328460126760555683540002D02D0BB
:100C1000054625432846164D603D6860144D203535
:100C200068680546A5432846012676045568354080
:100C3000002D02D00546254328460D4D203568601D
:100C400028680546A54328460126360455683540E0
:100C5000002D02D0054625432846054D2035286045
:100C6000491C1568CD40002D00D022E770BD000062
:100C7000601802400004005000080050000C0050B2
:100C8000024613690B40002B01D0012000E0002038
:100C90007047002A01D0816100E081627047000046
:100CA00001480068704700001800002070B5044635
:100CB000002C01D1012070BD184821680860184837
:100CC000216808602168606848602168A0688860C1
:100CD000FFF7E6FF05460CE0FFF7E2FF401B312877
:100CE00007D92068C0684007400F002801D00320C2
:100CF000E1E72068C0684007400F0028ECD1206879
:100D00000169E068814203D02168E068086102E07F
:100D10000448216808600020CDE70000CCCC00002A
:100D200055550000AAAA0000014602480A68106052
:100D300000207047AAAA0000034800680349097808
:100D4000401801490860704718000020200000206A
:100D500010B5002408480068FF2101310843064906
:100D60000860032000F00AF8002801D0012401E007
:100D700000F034F8204610BD00200240F8B50446CB
:100D800000251348007800281ED0114801787D20E6
:100D9000C000FFF7ADF9074639460E480068FFF777
:100DA000A7F9064600F0AAFD00280BD1042C07D2B3
:100DB00000222146401E00F045F80748046004E088
:100DC000012502E0012500E001252846F8BD0000CC
:100DD00020000020240000201C00002008B500BFD7
:100DE0000E480068012108430C4908600846006865
:100DF000C007C00F009000BF00BF00BF07484038C9
:100E0000C06B8905084305494039C8630846C06B73
:100E100009040840009000BF00BF08BD4010024018
:100E20000146002909DB00BF00BFCB06DB0E012213
:100E30009A40034B1A6000BF00BF00BF704700001C
:100E400000E100E070B504460D46164629462046EE
:100E500001F096FE70BD000070B5044611480068B0
:100E600003214902884320430E4908604815844203
:100E700016D10D4909680622514308460B49FFF770
:100E800037F9451C05E0002D01D06D1E01E003205F
:100E900070BD044840690121890208408842F2D0AF
:100EA0000020F5E7007000402400002040420F00C1
:100EB000FEB5044600270020029001214904206865
:100EC000084088427BD1002001907048C06BC90265
:100ED000084000280ED100BF6C48C06B08436B4926
:100EE000C8630846C06B09040840009000BF00BFFB
:100EF0000120019066480068FF21013108436449E0
:100F00000860FFF7CDFE064606E0FFF7C9FE801B2E
:100F1000022801D9032706E05D480068FF2101315E
:100F200008400028F1D000BF002F4BD15748403077
:100F3000C569032109020D40002D1AD06069A8423D
:100F400017D052484030C069884305464F4840306A
:100F5000C0690121090408434C494031C861084671
:100F6000C06901210904884348494031C8610846E5
:100F7000C561E807C00F002813D0FFF791FE0646B1
:100F800007E0FFF78DFE801B4249884201D9032705
:100F900006E03E484030C069022108400028F0D0F9
:100FA00000BF002F0CD139484030C069032109022D
:100FB00088436169084335494031C86103E00DE069
:100FC000029700E002970198012806D12F48C06BD4
:100FD0000121090788432D49C86300BF2078C00755
:100FE000C00F002809D0294840304069800880009F
:100FF0006168084325494031486120212068084044
:1010000020280AD121484030406903210903884340
:10101000A16808431D4940314861012189032068C6
:101020000840884213D11948403040698000800848
:101030002169084315494031486109062069884201
:1010400005D11248C068891308431049C8600121BE
:10105000C90220680840884215D10C4840304069D8
:10106000032189038843E168084308494031486106
:1010700001218903E068884205D10448C0688900DD
:1010800008430249C8600298FEBD000000100240FB
:10109000007000408813000070B504460D46002C17
:1010A00001D1012070BD6B4800684007400FA84285
:1010B00018D268480068C008C00028436549086025
:1010C000FFF7EEFD064607E0FFF7EAFD801B6249E9
:1010D000884201D90320E5E75E4800684007400FD9
:1010E000A842F1D1022120680840022815D104212C
:1010F00020680840042807D1584880680721090360
:101100008843401855498860544880680F21090277
:101110008843A1680843514988602078C007C00F00
:10112000002854D06068012808D14C48006801218B
:101130004904084000282ED10120B3E76068022846
:1011400008D146480068012149060840002822D1FC
:101150000120A7E76068002808D140480068012105
:1011600089020840002816D101209BE76068032807
:1011700008D13A484030006A0221084000280AD1CC
:1011800001208FE735484030C0690221084000281F
:1011900001D1012086E731488068C008C00061683D
:1011A00008432E498860FFF77BFD064607E0FFF7FE
:1011B00077FD801B2849884201D9032072E7274820
:1011C0008068382108406168C9008842EFD1214811
:1011D00000684007400FA84218D91E480068C008A0
:1011E000C00028431B490860FFF75AFD064607E088
:1011F000FFF756FD801B1849884201D9032051E7AB
:10120000144800684007400FA842F1D1042120682B
:101210000840042808D11148806807210903884341
:10122000E16808430D49886000F020F80B4989689F
:101230000F2212021140090A8900094A515CC906AD
:10124000C90EC8400749086007480068FFF796FDC7
:1012500028E7000000200240881300000010024030
:10126000A42F0008240000201C000020FEB53548F3
:1012700080683821084000280DD1324800680902F2
:101280000840C10A0120884000902F480099FEF7CD
:101290002FFF044654E02B48806838210840082876
:1012A00001D12A4C4CE0274880683821084010289A
:1012B00034D12448C0688607B60F2248C068702120
:1012C00008400009401C0190022E0FD0032E0CD1C3
:1012D0001E480199FEF70CFF1A49C9687F221202C5
:1012E0001140090A484305460DE000BF1648019920
:1012F000FEF7FEFE1349C9687F2212021140090A57
:101300004843054600BF00BF0E48C068400F471C59
:1013100039462846FEF7ECFE044611E0094880688D
:1013200038210840202801D1840209E0054880685E
:1013300038210840182802D17D24240200E000242E
:101340002046FEBD001002400024F40000127A0086
:10135000FEB50446002C01D10120FEBD2078C00757
:10136000C00F00286FD0F748876838210F40C06849
:101370008607B60F102F01D1032E01D0082F0BD1F5
:10138000F048006801214904084000285BD06068EB
:10139000002858D10120E0E700BF0121090460685E
:1013A000884205D1E74800680843E649086021E023
:1013B00005210904606888420ED1E24800680121D5
:1013C00089040843DF4908600846006801210904D0
:1013D0000843DC4908600DE0DA480068012109048F
:1013E0008843D84908600846006801218904884379
:1013F000D449086000BF6068002812D0FFF750FC95
:10140000054606E0FFF74CFC401B642801D9032089
:10141000A3E7CC4800680121490408400028F1D026
:1014200011E0FFF73DFC054606E0FFF739FC401BE5
:10143000642801D9032090E7C248006801214904CB
:1014400008400028F1D1022120680840022873D109
:10145000BC488068382108400746BA48C0688607FB
:10146000B60F102F01D1022E01D0002F36D1B54872
:101470000068012189020840002804D0E0680028A3
:1014800001D1012069E7AF4840687F210902884304
:10149000616909020843AB494860002F16D108462C
:1014A00000680721C902884321690843A5490860EB
:1014B000084600680722D2021040C20A012090406C
:1014C0000146A148FEF714FEA0490860A048006844
:1014D000FFF754FC002849D001203EE7E0680028CF
:1014E0002BD0984800680721C90288432169084326
:1014F00094490860084600688915084391490860C6
:10150000FFF7CEFB054606E0FFF7CAFB401B0228AB
:1015100001D9032021E78B48006801218902084096
:101520000028F1D0874840687F210902884361691B
:10153000090208438349486018E082480068FF2197
:10154000013188437F490860FFF7AAFB054606E0A2
:10155000FFF7A6FB401B022801D90320FDE67948CE
:1015600000680121890208400028F1D10821206883
:101570000840082849D17348806838210840182855
:101580000BD170484030006A0221084000283CD04E
:10159000A069002839D10120DFE6A06900281AD00F
:1015A00068484030006A01210843664940310862BA
:1015B000FFF776FB054606E0FFF772FB401B0228AB
:1015C00001D90320C9E65F484030006A0221084083
:1015D0000028F1D019E05B484030006A4008400024
:1015E000584940310862FFF75BFB054606E0FFF70C
:1015F00057FB401B022801D90320AEE6514840307A
:10160000006A022108400028F1D104212068084026
:1016100004287CD1002001904A4880683821084085
:1016200020280BD147484030C069022108400028DB
:101630006ED0A06800286BD101208EE64148C06BB7
:10164000010F01208843002810D000BF3D48C06B27
:101650000121090708433B49C8630846C06B0904D8
:101660000840009000BF00BF012001903948006889
:10167000FF2101310840002816D136480068084390
:1016800034490860FFF70CFB054606E0FFF708FB4E
:10169000401B022801D903205FE62E480068FF2185
:1016A000013108400028F1D000BFA068012808D10E
:1016B00024484030C0690121084322494031C861B3
:1016C00020E0A06805280FD11E484030C0690421E1
:1016D00008431C494031C8610846C06901210843DC
:1016E00018494031C8610DE016484030C0694108D2
:1016F000490014484030C161C06904218843114940
:101700004031C86100BFA068002816D001E040E069
:101710003EE0FFF7C5FA054607E0FFF7C1FA401BB8
:101720000D49884201D9032017E606484030C069B8
:10173000022108400028F0D01EE0FFF7B1FA05466C
:1017400014E00000001002400024F40024000020F7
:101750001C0000200070004088130000FFF7A0FA72
:10176000401B6249884201D90320F6E56048C06900
:10177000022108400028F1D10198012808D15C48D5
:101780004038C06B01210907884359494039C86373
:1017900000BFE06900285AD0554840388068382199
:1017A000084010287AD0E069022851D150484038CA
:1017B00000680121090688434D4940390860FFF758
:1017C0006FFA054606E0FFF76BFA401B022801D9C5
:1017D0000320C2E546484038006801214906084018
:1017E0000028F0D1616A206A0843A16A090208430F
:1017F000E16A0843216B08433D494039C9683D4AC5
:10180000114008433A494039C86008460068012140
:10181000090608433649403908600846C06809048B
:10182000084333494039C860FFF73AFA054606E0F5
:10183000FFF736FA401B022801D903208DE52C481A
:10184000403800680121490608400028F0D04AE0ED
:101850002748403800680121090688432449403957
:101860000860FFF71DFA054606E0FFF719FA401B6E
:10187000022801D9032070E51D4840380068012185
:10188000490608400028F0D119484038C0681A4974
:10189000084017494039C86025E0FFE7E0690128A2
:1018A00000D15AE512484038C668B107890F206A4E
:1018B000814216D170203040616A884211D17F2068
:1018C00000023040A16A090288420AD11F20400468
:1018D0003040E16A884204D1710F4907206B814290
:1018E00001D0012039E5002037E500008813000011
:1018F000401002408C80C11FFCFFFEEF70B5044613
:101900002546681E0949884201D901200CE0681E5D
:10191000074948610321081F01F032F900200449FA
:10192000886107200861002070BD0000FFFFFF00F4
:1019300000E000E0704770477047000030B5024695
:101940000B4600BF3C20805C012801D1022030BD45
:1019500001253C20855400BF02253D208554106898
:10196000416810688468164D1068A84206D10F259A
:101970002D050846A84301465868014370250846CE
:10198000A843014618680143106841600C4D106877
:10199000A84203D00B4D1068A84207D180252046ED
:1019A000A8430446986804431068846001253D20DC
:1019B000855400BF00253C20855400BF0020C6E7A9
:1019C000002C01400004004010B50446002C01D159
:1019D000012010BD3D20005D002805D100213C20E4
:1019E0000155204600F026F802213D200155211D19
:1019F000206800F02BFE01214820015500BF3E2049
:101A000001553F20015540200155412001554220FC
:101A100001554320015500BF00BF4420015545201A
:101A20000155462001554720015500BF3D20015575
:101A30000020CEE738B504460D492068884215D10C
:101A400000BF0C480068C91408430A4908600846EA
:101A50000068C9140840009000BF00BF0022114672
:101A60000D20FFF7EFF90D20FFF7DAF938BD000080
:101A7000002C01404010024001463D20405C0128FE
:101A800001D00120704702233D2043540868C068FC
:101A9000012318430B68D8600F4B0868984203D0A5
:101AA0000E4B086898420FD1086882680C4B1A40A8
:101AB000062A0FD0D81F82420CD008680068012384
:101AC00018430B68186005E0086800680123184394
:101AD0000B6818600020D5E7002C0140000400408E
:101AE00007000100F8B504460D460020009000BF35
:101AF0003C20005D012801D10220F8BD01213C20DD
:101B0000015500BF02213D200155206886683A48F2
:101B10000640FF2109023046884306462068866059
:101B20002868502834D00CDC202851D004DC002850
:101B30004CD0102852D14AE030284AD040284DD10C
:101B40003AE060282ED0702807D001210903401AFE
:101B500002D0401A42D10DE043E0EB686A68A96800
:101B6000206800F0CCFD2068866877200643206856
:101B7000866036E0EB686A68A968206800F0BFFDFF
:101B8000206880680121890308432168886028E073
:101B9000EA686968206800F067FF5021206800F05B
:101BA000BDFD1EE0EA686968206800F076FF6021EC
:101BB000206800F0B3FD14E0EA686968206800F06E
:101BC00053FF4021206800F0A9FD0AE000BF00BFDC
:101BD00000BF2968206800F0A1FD02E0012000900C
:101BE00000BF00BF01213D20015500BF00213C2066
:101BF000015500BF009880E788FFCEFF70470000C6
:101C000010B50446206800690221084040080028F9
:101C10001CD02068C06808404008002816D0481F23
:101C20002168086101202077206880698007800F83
:101C3000002803D02046FFF7E1FF05E0204600F032
:101C400009F9204600F012FA002020772068006988
:101C500004210840800800281DD02068C068084082
:101C60008008002817D0C843216808610220207727
:101C700020688069032109020840002803D020461B
:101C8000FFF7BCFF05E0204600F0E4F8204600F036
:101C9000EDF9002020772068006908210840C0087D
:101CA00000281CD02068C0680840C008002816D052
:101CB000C84321680861042020772068C069800734
:101CC000800F002803D02046FFF798FF05E020464C
:101CD00000F0C0F8204600F0C9F900202077206805
:101CE000006910210840000900281DD02068C06844
:101CF00008400009002817D0C8432168086108205F
:101D000020772068C069032109020840002803D019
:101D10002046FFF773FF05E0204600F09BF82046C1
:101D200000F0A4F90020207720680069C007C00FE8
:101D300001214840484000280CD02068C068084075
:101D400048404840002805D0C81E21680861204648
:101D500000F018FA2068006980210840C0090028B6
:101D60000BD02068C0680840C009002805D0C843CF
:101D7000216808612046FFF7DEFD20680069FF2129
:101D800001310840000A00280CD02068C06880217A
:101D90000840C009002805D016482168086120467F
:101DA000FFF7C8FD2068006940210840800900282D
:101DB0000BD02068C06808408009002805D0C843BF
:101DC00021680861204600F011FA2068006920218E
:101DD0000840400900280BD02068C068084040092E
:101DE000002805D0C843216808612046FFF7A4FDFC
:101DF00010BD0000FFFEFFFF10B586B004461421A1
:101E000001A8FEF792F91149206888421BD100BF52
:101E10000F48406B012108430D4948630846406B59
:101E2000C007C00F009000BF00BF402001900220FB
:101E300002900020039004900120059001A9052044
:101E40000007FEF731FE06B010BD000000040040A0
:101E5000001002407047F8B504460D4616460027AC
:101E600000BF3C20005D012801D10220F8BD012106
:101E70003C20015500BF0C2E54D006DC002E09D0AA
:101E8000042E1ED0082E7ED135E0102E64D0142EE4
:101E9000F9D179E02946206800F04CFC206880697F
:101EA00008210843216888612068806904218843EB
:101EB00021688861206880692969084321688861F0
:101EC0007EE02946206800F083FC206880690121BB
:101ED000C90208432168886120688069012189025C
:101EE000884321688861206880692969090208435C
:101EF0002168886164E02946206800F0BFFC206802
:101F0000C069082108432168C8612068C0690421AC
:101F100088432168C8612068C0692969084321682D
:101F2000C8614DE02946206800F0FCFC2068C069CB
:101F30000121C90208432168C8612068C0690121E4
:101F4000890288432168C8612068C069296909023B
:101F500008432168C86133E02946206800F01CFD71
:101F60002068406D08210843216848652068406D5D
:101F700004218843216848652068406D2969084329
:101F8000216848651CE019E02946206800F038FD0A
:101F90002068406D0121C902084321684865206816
:101FA000406D012189028843216848652068406DA1
:101FB0002969090208432168486501E0012700BF3B
:101FC00000BF00BF00213C20015500BF38464DE74F
:101FD00010B50446002C01D1012010BD3D20005D4C
:101FE000002805D100213C200155204600F026F8AC
:101FF00002213D200155211D206800F027FB012111
:102000004820015500BF3E2001553F20015540208A
:10201000015541200155422001554320015500BF83
:1020200000BF442001554520015546200155472059
:10203000015500BF3D2001550020CEE708B5094AF3
:10204000016891420DD100BF0749C96B02221143BB
:10205000054AD1631146C96B02221140009100BFAD
:1020600000BF08BD0004004000100240704700009F
:1020700070B504460D46002D02D13E20005D15E0EE
:10208000042D02D13F20005D10E0082D02D1402038
:10209000005D0BE00C2D02D14120005D06E0102D0B
:1020A00002D14220005D01E04320005D012801D003
:1020B000012070BD002D03D102213E2001551AE000
:1020C000042D03D102213F20015514E0082D03D136
:1020D0000221402001550EE00C2D03D102214120A8
:1020E000015508E0102D03D102214220015502E0E4
:1020F00002214320015501222946206800F0EEFA12
:102100001B492068884207D01A492068884203D0BA
:1021100019492068884201D1012000E000200028F0
:1021200006D02068406C0121C90308432168486437
:102130000F492068884203D01049206888420FD197
:10214000206886680E490E40062E0FD0C81F8642B2
:102150000CD020680068012108432168086005E070
:102160002068006801210843216808600020A0E77A
:10217000002C0140004401400048014000040040A0
:102180000700010010B5044613492068884222D197
:1021900000F04AF8FEF776F8104908601048FEF79C
:1021A00035FC01210E48FEF7C3FB0D48FEF724FA6B
:1021B0000C49088009480068032805D008460088B3
:1021C0004B210901884203DA00200749086002E038
:1021D00001200549086010BD002C014000000020CE
:1021E000340000201400002004000020704700BFCD
:1021F000FEE7000010220A40002A03D00122094B0A
:102200001A700EE020220A40002A03D00222054B59
:102210001A7006E040220A40002A02D00322014B35
:102220001A7070472800002010B500F05FFE10BD46
:102230008168024A1140491C81607047E8FFFF7FB6
:1022400001460868072292051040704701468868D9
:10225000C007C00F012250405040704701468868B7
:10226000012212071040000F7047014688680422BF
:102270001040800870470146C8680322920210404F
:10228000002801D1012070470020FCE78168024A44
:102290001140091D81607047E8FFFF7F0268072336
:1022A0009B059A430A430260704730B54369042492
:1022B0000D4625400724AC40A34304240C4015469A
:1022C000A5402B43436130BD0EB500200090019026
:1022D00002901B481B49086000054860002119480E
:1022E0008160C16001610421416100210176417674
:1022F00081760121C1610021001D0177001F41622B
:102300008162243001722438016341638163243087
:1023100001762438C164FEF773F9002801D0FDF777
:10232000ADFF012000900020019002906946054811
:10233000FDF7B0FF002801D0FDF7A0FF0EBD0000A3
:10234000002401403400002000B587B0142102A809
:10235000FDF7EBFE00BF4148406B022108433F49B7
:1023600048630846406B02210840019000BF00BF4F
:1023700000BF3A48406B0421084338494863084687
:10238000406B04210840019000BF00BF00BF3348EC
:10239000406B01210843314948630846406BC00740
:1023A000C00F019000BF00BF0022042105200007DC
:1023B000FEF76FFC002201212948FEF76AFC29483C
:1023C0000290032003900020049002A92448FEF705
:1023D0006BFB0320800302900320039000200490F5
:1023E00002A92148FEF760FB022002900020039022
:1023F0000120049002A905200007FEF755FB0420E8
:10240000029001200390022004900020059002A970
:1024100005200007FEF748FB1448029003200390B4
:102420000020049002A905200007FEF73DFB1020C4
:10243000029000200390049002A905200007FEF7F7
:1024400033FB01200290039000200490059002A924
:102450000348FEF729FB07B000BD00000010024052
:1024600000040050FE03000000080050A89900007E
:1024700010B5084808490860042048600749064824
:10248000C1608160FEF712FC002801D0FDF7F6FE66
:1024900010BD00000030004098000020FF0F000039
:1024A00000B587B00020039004900590069000903E
:1024B000019002901648174908609F20486000214B
:1024C00014488160FF21F431C16000210161416144
:1024D0008161FFF779FA002801D0FDF7CFFE0120D6
:1024E0000003039003A90B48FFF7FCFA002801D072
:1024F000FDF7C4FE00200090019002906946054857
:10250000FFF71CFA002801D0FDF7B8FE07B000BDA8
:10251000002C0140A800002000B58BB000200890DE
:1025200009900A901C2101A8FDF7FFFD18481949E0
:1025300008600F204860002116488160F921C160C1
:10254000002101618161FFF743FD002801D0FDF703
:1025500095FE002008900A9008A90E48FFF7EEF9B2
:10256000002801D0FDF78AFE602001900020029033
:1025700003900590002201A90648FFF76CFC002893
:1025800001D0FDF77BFE0348FFF736FC0BB000BD22
:1025900000040040F400002000BFFEE77047000088
:1025A00010B5022105200007FEF76AFB002803D0C2
:1025B00000200449086002E0012002490860014847
:1025C000007810BD2C000020704710B5FEF7B4FB5A
:1025D00010BD00B591B0342104A8FDF7A6FD002080
:1025E000009001900290039001204002FEF734FC1D
:1025F0000A200490FF20013007900020089040201E
:10260000099001200A9000200B9004A8FEF7A0FE7C
:10261000002801D0FDF732FE072000900020019035
:102620000290039000216846FEF736FD002801D095
:10263000FDF724FE11B000BD7047000010B5024840
:10264000FFF7DEFA10BD0000A800002010B50268F8
:102650001D4B984202D01D4B984205D17024134661
:10266000A3431A464B681A43174B98420BD0174B9B
:10267000984208D0164B984205D0164B984202D08B
:10268000154B984206D1032424021346A3431A464D
:10269000CB681A4380241346A3434C6923431A464C
:1026A00002608B68C3620B688362074B984205D057
:1026B000084B984202D0084B984201D10B69036342
:1026C0000123436110BD0000002C014000040040C4
:1026D00000200040004401400048014070B5CD0694
:1026E000ED0E0124AC402346046A9C430462046A54
:1026F000CE06F60E1546B5402C43046270BD70B58B
:102700000C468168FF2636020D46B54329461D0258
:10271000154325432943816070BD00000A46816846
:10272000034B19400723134319438160704700008E
:102730008FFFCFFF70B5056A6D086D000562026AF4
:10274000436884691E4D2C40A408A4000D682C43E6
:1027500002261546B5432A468D682A43194DA842DC
:1027600000D107E0184DA84200D103E0174DA84260
:102770000AD100BF08261546B5432A46CD682A432C
:1027800004261546B5432A460E4DA84205D00E4DE7
:10279000A84202D00D4DA8420CD1FF2601361D469D
:1027A000B5432B4676001D46B5432B464D692B435A
:1027B0008D692B43436084614D684563026270BD3F
:1027C0008FFFFEFF002C0140004401400048014003
:1027D00070B5056A1026B5430562026A43688469CC
:1027E000224D2C40032636022546B5432C460D6863
:1027F0002D022C4320261546B5432A468D682D010F
:102800002A431B4DA84200D107E01A4DA84200D12F
:1028100000BF194DA8420BD10AE080261546B543EA
:102820002A46CD682D012A4340261546B5432A463F
:102830000F4DA84205D00F4DA84202D00E4DA84220
:102840000ED10126B6021D46B5432B4676001D4625
:10285000B5432B464D69AD002B438D69AD002B432D
:10286000436084614D688563026270BDFF8FFFFE27
:10287000002C0140004401400048014070B5056A49
:10288000FF260136B5430562026A4368C469214DDB
:102890002C40A408A4000D682C4376001546B543CF
:1028A0002A468D682D022A431B4DA84200D107E01D
:1028B0001A4DA84200D100BF194DA8420CD10BE01F
:1028C0000126F6021546B5432A46CD682D022A4355
:1028D00076101546B5432A460F4DA84205D00F4D38
:1028E000A84202D00E4DA8420ED1012636031D4645
:1028F000B5432B4676001D46B5432B464D692D0149
:102900002B438D692D012B434360C4614D68C56322
:10291000026270BD8FFFFEFF002C014000440140A9
:102920000048014070B5056A01263603B5430562CB
:10293000036A4468C269144D2A40032636021546CC
:10294000B5432A460D682D022A43012676031D460B
:10295000B5432B468D682D032B430C4DA84205D063
:102960000B4DA84202D00B4DA84207D10126B60359
:102970002546B5432C464D69AD012C434460C261E8
:102980004D680564036270BDFF8FFFFE002C01409F
:10299000004401400048014070B5056A0126360434
:1029A000B5430562026A4368446D114D2C400D68C1
:1029B0002C4376001546B5432A460D892D042A433B
:1029C0000C4DA84205D00C4DA84202D00B4DA84298
:1029D00007D1012636041D46B5432B464D692D020D
:1029E0002B43436044654D688565026270BD0000FD
:1029F0008FFFFEFF002C01400044014000480140D1
:102A000070B5056A01263605B5430562026A43685A
:102A1000446D114D2C400D682D022C437600154657
:102A2000B5432A460D892D052A430C4DA84205D0F1
:102A30000B4DA84202D00B4DA84207D10126B60487
:102A40001D46B5432B464D69AD022B43436044659B
:102A50004D68C565026270BDFF8FFFFE002C01400E
:102A6000004401400048014070B50B461446026A1C
:102A7000056A6D086D0005628169F0260D46B54353
:102A80002946250129430A261546B5432A461546F7
:102A90001D432A468161026270BD70B50B46144623
:102AA000056A1026B54305628169026A0F2636035E
:102AB0000D46B543294625032943A0261546B543AF
:102AC0002A461D012A438161026270BD10B50022B1
:102AD00001210A48FEF7DDF83221FF202D30FDF7F5
:102AE000ADFB0022042105200007FEF7D2F80021EB
:102AF000FF202D30FDF7A2FB10BD000000040050A8
:102B000010B5012211461548FEF7C3F83221FA200C
:102B1000FDF794FB002201211048FEF7BAF80021CE
:102B20006420FDF78BFB012211460C48FEF7B1F83B
:102B30003221FA20FDF782FB012204210520000743
:102B4000FEF7A7F800BF022105200007FEF798F85E
:102B50000028F8D001200249086010BD0004005090
:102B60000400002030B47446641E2578641CAB4217
:102B700004D3635D5B00E31830BC18471D46F8E7DB
:102B800010B5002819DB1A4A03231B02D218830848
:102B90009B00D2588307DC0EFF23A3409A438B0788
:102BA0001B0E8407E40EA3401A43114B0324240296
:102BB0001B198408A4001A5118E00E4A03071B0FC2
:102BC000083B9B089B00D2588307DC0EFF23A340E1
:102BD0009A438B071B0E8407E40EA3401A43054B50
:102BE0000407240F083CA408A4001A5110BD0000DB
:102BF00000E100E01CED00E002E008C8121F08C17F
:102C0000002AFAD170477047002001E001C1121F6D
:102C1000002AFBD17047F8B504460D46164614212C
:102C20002046FDF782FA0020A071E560E068804749
:102C3000C000082108400746207A884338432072A4
:102C40002661204600F03CF9F8BD70B50446E06806
:102C500080470546E0794006400F002802DDA08845
:102C6000401CA080207A0007C00FA84219D0207A0B
:102C7000C008C000217A491C4907490F0843207247
:102C80004007400F032810DB207A08218843E90021
:102C90000822114008432072207AC008C000207228
:102CA00003E0207AC008C0002072A571E0794006D8
:102CB000400F0300FFF756FF06042553B7FBD8FB70
:102CC000207A0007C00F002818D0A07902210843FD
:102CD000A071A0790840002803D0A179204622697C
:102CE00090470020A080E07900090001401CE071BD
:102CF000E079702188431030E07101E0A079A07183
:102D0000D5E0207A0007C00F002813D1A079042154
:102D10000843A071A0790840002803D0A17920467B
:102D2000226990470020A080E079702188432030FC
:102D3000E07113E0A088C82810DDA0794021084385
:102D4000A071A0790840002803D0A179204622690B
:102D50009047E079702188435030E071A7E0207AF5
:102D60000007C00F002833D0A07902210843A071CA
:102D7000A0790840002803D0A17920462269904715
:102D8000E07900090001E179491C0907090F0843AE
:102D9000E071E0790007000F022808D1A079202116
:102DA0000840002803D0A179204622699047A079E5
:102DB00008210840002803D0A179204622699047C5
:102DC0000020A080E079702188433030E07129E054
:102DD000A0883C2826DDE0790007000F01280CD1EF
:102DE000A07910210843A071A0790840002815D0CF
:102DF000A17920462269904710E0E0790007000F92
:102E000002280BD1A07920210843A071A0790840A5
:102E1000002803D0A179204622699047E0797021EB
:102E20008843E07143E0207A0007C00F00281AD1E0
:102E3000A07904210843A071A0790840002803D09C
:102E4000A179204622699047A0883C2807DA002013
:102E5000A080E079702188432030E07103E0E079C0
:102E600070218843E07122E0207A0007C00F00281B
:102E70000CD0A07980210843A071A07908400028D7
:102E800014D0A1792046226990470FE0A07904214F
:102E90000843A071A0790840002803D0A1792046FA
:102EA00022699047E07970218843E07100BF00BF3C
:102EB00070BD00000020014908607047300000200C
:102EC00001460948026805E08A4202D10020C04359
:102ED00070471268002AF7D103480068086002486A
:102EE00001600020F4E700003000002010B5054824
:102EF000046803E02046FFF7A8FE2468002CF9D1FF
:102F000010BD000030000020FDF722FFFFF761FB3D
:102F1000FFF71AFAFFF7D8F9FFF7FEFAFFF7C0FA42
:102F200000211848FFF7A4F87D20FDF7A7FDFFF763
:102F3000E7FDFDF793F91448FEF79EFD7D20C000E4
:102F4000FDF79CFDFFF794FA1BE01048006800288D
:102F500005D1FFF7BBFD01200D4908600EE00C48CC
:102F6000006801280AD0102105200007FDF788FE1F
:102F70000446224601210748FDF78BFE0648FDF76F
:102F8000D3FEE2E7F4000020A800002004000020A7
:102F9000100000200004005098000020081C30445D
:102FA00058000000000000000000000000000000C9
:102FB0000000000000000000000000000000000011
:102FC00000000000010000000200000003000000FB
:102FD00004000000060000000700000008000000D8
:102FE00009000000000000000000000000000000D8
:102FF00000000000010000000200000003000000CB
:10300000040000002430000800000020340000000C
:10301000F82B000858300008340000202405000078
:10302000082C000800000000000000000000000064
:103030000000000000000000000000000000000090
:1030400004000000010000000024F4000000000063
:08305000000000000000000078
:04000005080000C12E
:00000001FF
